:060000000A128A11122809
:10000800FE00030EF3000408F4000A08F50083124A
:1000180003137F08F6000A128A117D2A0A128A1130
:1000280015280A128A1156250A128A11D8000A12AE
:100038008A1157250A128A11D9000A128A115425E1
:100048000A128A11FC000A128A1155250A128A110D
:10005800FD0083134830840058300A128A114C2559
:10006800FB0183010A128A11AF2983120313BF000F
:100078002F30B5003508B800013083120313AE07DE
:10008800FF302E0784000A128A110A240A128A11E4
:10009800B5003508C00040080319A82925304006D6
:1000A800031962284008B5003F0884003508831307
:1000B80080000130B5003508BF074028BD01BE01EA
:1000C800BA012E0884000A128A110A240A128A1117
:1000D8000A128A1133250A128A11031CB1288312C5
:1000E8000313BD01BE010A3083120313A0000030C0
:1000F800A1003E08A3003D08A2000A128A11CA24E2
:100108000A128A11831203132108BE002008BD00B9
:100118002E0884000A128A110A240A128A11D03E73
:10012800B500FF3003180030B6003508BD070318C6
:10013800BE0A3608BE070130B5003508AE072E08DE
:1001480084000A128A110A240A128A110A128A11D0
:1001580033250A128A1103187728013083120313F2
:10016800AE07FF302E0784000A128A110A240A12E9
:100178008A11C000003A0319A829643A0319C8284B
:100188000D3A0319C828402883120313380884003D
:1001980083130008BB00840A0008BC000230B500C5
:1001A8003508B807BC1FE1280330B5003508BA0484
:1001B800BB09BC09BB0A0319BC0AC001C00A053047
:1001C8004006031908294008B5003507013E840098
:1001D8000A128A110A240A128A11B6000A128A110E
:1001E8000A240A128A11B70037083C02031DFE28A8
:1001F80036083B02031C08290130B5003508C00742
:1002080005304006031DE7283D083E04031916295A
:100218003A08033903191629FF30BD070318BE0A27
:10022800FF30BE074008B500B601B51BB603360857
:10023800803AB7003E08803A3702031D25293D0859
:10024800350203183529831203134008B500B60197
:10025800B51BB6033508BD023608031CBE03BE0233
:10026800392983120313BD01BE013D083E04031959
:1002780052292030B5003F088400350883138000D8
:100288000130B5003508BF07FF30BD070318BE0AA7
:10029800FF30BE073D083E04031D3D293A080339D7
:1002A800031961292D30B5003F08840035088313F0
:1002B80080000130B5003508BF074008B500350893
:1002C800B900FF30B5003508B907390A03194028C5
:1002D8000A30A8000030A9003908B5003507013EEA
:1002E80084000A128A110A240A128A11A0000A122A
:1002F8008A110A240A128A11A1003C08A3003B08AB
:10030800A2000A128A11AD230A128A11831203135A
:100318002108AB002008AA000A128A113B240A12FD
:100328008A11831203132808303EB6003608C0002D
:100338004008B5003F088400350883138000013069
:10034800B5003508BF076529831203133F088400E9
:10035800831380010800C8308316031385008312B5
:1003680003138501FF30831603138600833087004B
:10037800831203138701831603138801831203135F
:100388008801831603138901831203138901083036
:100398008316031788001730890083120313891402
:1003A80000300A128A1164230A128A110A128A1169
:1003B80000230A128A110A128A111E250A128A11AA
:1003C8001B3083120313A4008030A5000A128A117F
:1003D800A2240A128A11C830831603138100B03090
:1003E800831203138100263092009101FF30831697
:1003F80003139200F0309600A8308B00023083126D
:100408000313C3004530C200A930C100C10B0A2A3A
:10041800C20B0A2AC30B0A2A0A128A116F240A126B
:100428008A118B130B3083120313C1004108AE00ED
:100438007D08C200C3014208AF004308B0007C0831
:10044800C400C5014408B1004508B2004808C60008
:10045800C7014608B3004708B40049300A128A1198
:1004680039200A128A11003083120313A300A40052
:100478000030A500A6000A128A11ED240A128A117A
:10048800493083120313A4000030A5000A128A1110
:10049800A2240A128A11243083120313C1004108CE
:1004A800AE005908C200C3014208AF004308B000BB
:1004B80049300A128A1139200A128A11003083122F
:1004C8000313A300A4000130A5000030A6000A12FF
:1004D8008A11ED240A128A11493083120313A400E9
:1004E8000030A5000A128A11A2240A128A118B1759
:1004F800022A0B080139F000F1017008F7007108B1
:10050800F8000B0CF000700C0139F100F2017108D1
:10051800F9007208FA0028308B007708780403196C
:10052800D22A060E0139F0000030FB190130F10023
:10053800700871020318B02A060EF000700C013919
:10054800F10000307B190130F200710872020318C3
:10055800B02A0130D902CA2A060E0139F00000304B
:10056800FB190130F100700871020318CA2A060E3F
:10057800F000700C0139F10000307B190130710670
:10058800031DCA2A0130F0007008D907FB11061AAA
:10059800FB157B1183120313861A7B1579087A04DD
:1005A8000319F12A8312031381017D081102031C28
:1005B800DF2A0813E02A08177C081102031CE62A20
:1005C8008813E72A881748081102031CED2A8812A5
:1005D800EE2A88160108B03E8100A8308B00760804
:1005E80083120313FF0075088A0074088400730ED1
:1005F8008300FE0E7E0E0900033083120313A5004C
:100608008A30A4005530A300A30B082BA40B082B99
:10061800A50B082B02300A128A1106250A128A1124
:10062800831203138514023083120313A300A30B50
:100638001B2B00008312031385100230831203134F
:10064800A300A30B252B00000C300A128A110625E3
:100658000A128A11831203138514023083120313BA
:10066800A300A30B352B000083120313851052300F
:1006780083120313A300A30B3F2B00000C300A12B4
:100688008A1164230A128A11523083120313A300B9
:10069800A30B4C2B000001300A128A1164230A12A2
:1006A8008A110D3083120313A400FB30A300A30B9F
:1006B8005B2BA40B5B2B06300A128A1164230800FB
:1006C80083120313A2002208A10004300310A10C16
:1006D800FF3E031D6A2B21080A128A1106250A12F9
:1006E8008A11073083120313A100A10B792B000094
:1006F800831203138514073083120313A100A10B7F
:10070800832B000083120313851022080F390A1265
:100718008A1106250A128A11073083120313A100D1
:10072800A10B942B00008312031385140730831246
:100738000313A100A10B9E2B000083120313851045
:10074800C73083120313A100A92BA10BA82BAC2B34
:10075800080083120313A501A60120082104031928
:10076800E62BA701A70AA11BC52B01300310A00D7A
:10077800A10DFF3E031DBA2B0130A4002408A707D2
:10078800B72B01300310A50DA60DFF3E031DC62B88
:1007980021082302031DD22B20082202031CDB2B75
:1007A8002008A2022108031CA303A3022514013078
:1007B8000310A10CA00CFF3E031DDC2B0130A70287
:0E07C800031DC52B2608A1002508A00008006F
:10080000FF1B0A2C83137F1883170008840A03191F
:10081000FF0A080004308A000408840A82070034B2
:10082000013400340A34003464340034E8340334CE
:100830001034273452343A34253433346434473452
:100840003A3425343334643442343A34253433343E
:100850006434003449346E34693463346934613447
:1008600064346F3400347334653474343A3425346A
:100870003334643400348312031328082904031921
:100880006A2CAD01AD0AA91B512C01300310A80D33
:10089000A90DFF3E031D462C0130AC002C08AD070E
:1008A000432C29082B02031D572C28082A02031C5D
:1008B0005F2C2808AA022908031CAB03AB020130F5
:1008C0000310A90CA80CFF3E031D602C0130AD02E3
:1008D000031D512C2B08A9002A08A8000800831228
:1008E0000313070C0139A00007080139A1002107F3
:1008F0002004A2002208D800861F0800922CFD01C7
:10090000FC01C80108005908A0002008FD000800EB
:100910005908A0002008FC0008005908A000200881
:10092000C80008005808003A03197F2C013A03193F
:10093000832C033A0319882C013A03198D2CA12C1E
:100940000800080083120313A7012508FF002408EC
:1009500084000A128A1100240A128A11003A03192B
:1009600008002508FF00240884000A128A110024C8
:100970000A128A110A128A1143250A128A110130B9
:1009800083120313A4070318A50A0130A600260842
:10099000A707A52C83120313A401A501201CD62CA4
:1009A0002208A4070318A50A2308A507013003108D
:1009B000A20DA30DFF3E031DD72C01300310A10C87
:1009C000A00CFF3E031DDE2C20082104031DCE2CAD
:1009D0002508A1002408A0000800831203130510B5
:1009E00025082604031DFA2C2308803E0A128A11CA
:1009F000642308008312031325032604031D080043
:100A00002308C03E0A128A116423080083120313CC
:100A1000A000201C0D2D05150E2D0511A01C122D5A
:100A20000516132D0512201D172D8516182D85125C
:100A3000A01D1C2D091408000910080083120313BF
:100A4000051001300A128A1164230A128A1121301A
:100A500083120313A4007530A300A30B2D2DA40B48
:100A60002D2D322D080083120313A100A0013A306E
:100A700021020318412D30302102031C412DA00119
:100A8000A00A200C080083120313A30005142308F6
:100A90000A128A116423080064008001840A040693
:100AA0000319003404064D2D2334FF34013423345C
:04400E00E2ECFFFFE2
:00000001FF
